{
  "contractName": "SocToken",
  "abi": [
    {
      "inputs": [],
      "payable": false,
      "stateMutability": "nonpayable",
      "type": "constructor"
    },
    {
      "constant": true,
      "inputs": [],
      "name": "totalSupply",
      "outputs": [
        {
          "internalType": "uint256",
          "name": "",
          "type": "uint256"
        }
      ],
      "payable": false,
      "stateMutability": "view",
      "type": "function"
    }
  ],
  "bytecode": "0x6080604052348015600f57600080fd5b50620f42406000819055506084806100286000396000f3fe6080604052348015600f57600080fd5b506004361060285760003560e01c806318160ddd14602d575b600080fd5b60336049565b6040518082815260200191505060405180910390f35b6000548156fea265627a7a72315820c2fb26ec21f4fc1a4c5fde3709658e916875573e8d5a30b0011f6dbd08453da264736f6c634300050c0032",
  "source": "pragma solidity >=0.4.21 <0.7.0;  \r\n\r\n\r\n\r\n\r\ncontract SocToken {\r\n    // contructor\r\n    // Srt the total nuber of Tokens\r\n    // read the total number of Tokens\r\n\r\n    uint256 public totalSupply;\r\n\r\n    constructor () public {\r\n\r\n        totalSupply = 1000000;\r\n\r\n\r\n\r\n    }\r\n\r\n}\r\n",
  "sourcePath": "C:/Users/utibe/Desktop/Smart_C/Token/token_sale/contracts/SocToken.sol",
  "compiler": {
    "name": "solc",
    "version": "0.5.12+commit.7709ece9.Emscripten.clang"
  },
  "schemaVersion": "3.0.19",
  "updatedAt": "2020-07-05T06:18:16.074Z",
  "devdoc": {
    "methods": {}
  },
  "userdoc": {
    "methods": {}
  }
}